:100000000C9434000C9446000C9446000C9446006A
:100010000C9446000C9446000C9446000C94460048
:100020000C9446000C9446000C9446000C94460038
:100030000C9446000C9446000C9446000C94460028
:100040000C9446000C9446000C9446000C94460018
:100050000C9446000C9446000C9446000C94460008
:100060000C9446000C94460011241FBECFEFD8E03C
:10007000DEBFCDBF21E0A0E0B1E001C01D92A13004
:10008000B207E1F70E947E000C9400020C9400007D
:1000900085B1826085B985E38A95F1F7000085B165
:1000A0008D7F85B908954C9BFECF109285001092EC
:1000B00084004C99FECF6091840070918500072EDA
:1000C000000C880B990B0E94E3002DEB37E346E808
:1000D00053E30E946B010E94AB0027E531E0269FAD
:1000E000A001279F500D369F500D1124552314F465
:1000F0004F5F5F4FCA0195958795089584B18260DF
:1001000084B984B1816084B98AB18F7D8AB98AB19A
:100110008F7E8AB90E9448000E945300BC01990F4B
:10012000880B990B0E94E30020E030E040E85FE399
:100130000E94A600882324F485B1816085B903C09C
:1001400085B18E7F85B980910001E4CF0E941E01A8
:1001500008F481E008950E94B2006894B1110C94F3
:10016000650108950E944A0188F09F5798F0B92FC1
:100170009927B751B0F0E1F0660F771F881F991FDC
:100180001AF0BA95C9F714C0B13091F00E94640119
:10019000B1E008950C946401672F782F8827B85F29
:1001A00039F0B93FCCF3869577956795B395D9F734
:1001B0003EF490958095709561957F4F8F4F9F4F3E
:1001C0000895E89409C097FB3EF49095809570954A
:1001D00061957F4F8F4F9F4F9923A9F0F92F96E993
:1001E000BB279395F695879577956795B795F11108
:1001F000F8CFFAF4BB0F11F460FF1BC06F5F7F4FA5
:100200008F4F9F4F16C0882311F096E911C07723B6
:1002100021F09EE8872F762F05C0662371F096E8BF
:10022000862F70E060E02AF09A95660F771F881F8E
:10023000DAF7880F9695879597F90895990F000832
:10024000550FAA0BE0E8FEEF16161706E807F907A8
:10025000C0F012161306E407F50798F0621B730B43
:10026000840B950B39F40A2661F0232B242B252BC4
:1002700021F408950A2609F4A140A6958FEF811D67
:10028000811D089557FD9058440F551F59F05F3F49
:1002900071F04795880F97FB991F61F09F3F79F0A8
:1002A00087950895121613061406551FF2CF46952A
:1002B000F1DF08C0161617061806991FF1CF8695AC
:1002C0007105610508940895E894BB276627772790
:1002D000CB0197F908950E947E010C94EF010E94D2
:1002E000E10138F00E94E80120F0952311F00C9410
:1002F000D8010C94DE0111240C9465010E94420186
:1003000070F3959FC1F3950F50E0551F629FF00168
:10031000729FBB27F00DB11D639FAA27F00DB11D81
:10032000AA1F649F6627B00DA11D661F829F22270A
:10033000B00DA11D621F739FB00DA11D621F839F91
:10034000A00D611D221F749F3327A00D611D231F67
:10035000849F600D211D822F762F6A2F11249F57B5
:1003600050409AF0F1F088234AF0EE0FFF1FBB1FB8
:10037000661F771F881F91505040A9F79E3F510577
:1003800080F00C94D8010C9465015F3FE4F3983E33
:10039000D4F3869577956795B795F795E7959F5F21
:1003A000C1F7FE2B880F911D9695879597F90895B3
:1003B00097F99F6780E870E060E008959FEF80EC18
:1003C000089500240A9416161706180609060895BB
:1003D00000240A9412161306140605060895092E21
:1003E0000394000C11F4882352F0BB0F40F4BF2B90
:1003F00011F460FF04C06F5F7F4F8F4F9F4F0895D0
:04040000F894FFCF9E
:00000001FF
