S015000073656E736F72436F6E74726F6C2E7372656394
S11300000C9434000C9446000C9446000C94460066
S11300100C9446000C9446000C9446000C94460044
S11300200C9446000C9446000C9446000C94480032
S11300300C9446000C9446000C9446000C94460024
S11300400C9446000C9446000C9446000C94460014
S11300500C9446000C9446000C9446000C94460004
S11300600C9446000C94460011241FBECFEFD8E038
S1130070DEBFCDBF21E0A0E0B1E001C01D92A330FE
S1130080B207E1F70E94D0000C947F020C940000A8
S11300901F920F920FB60F921124109285001092A6
S11300A084000F900FBE0F901F901895660F771F56
S11300B09C01629FC001639F900D729F900D11245B
S11300C09C01990F440B550B60E074E284EF90E0BF
S11300D00E943E02C9010895CF93DF937894E0E82B
S11300E0F0E01082C1E8D0E01882109285001092EE
S11300F084008081806480838081816080838881A2
S113010080618883EFE6F0E080818260808361E033
S113011070E08BE092E00E945600909389008093F7
S1130120880088818160888385B18D7F85B9DF915E
S1130130CF91089510928100E0E8F0E080818F7BF8
S1130140808385B18D7F85B9089585B1816085B936
S113015085E38A95F1F7000085B18E7F85B94C9BC4
S1130160FECF60E070E006C06F5F7F4F85E08A9548
S1130170F1F700004C99F8CF80E090E00E94430131
S113018028E23EE74CE05DE30E94A90120E030E074
S113019040E05FE30E94A9010E940D01CB01089594
S11301A084B1816084B984B1826084B98AB18F7D5D
S11301B08AB98AB18F7E8AB98AB184608AB98AB1D0
S11301C088608AB97894809102018111FCCF0E94E1
S11301D0A5009093010180930001C2977CF48BB138
S11301E084608BB98BB1877F8BB90E946C008FE3DD
S11301F09FE10197F1F700C00000E5CF8BB1886063
S11302008BB98BB18B7F8BB90E949A008FE39FE1EE
S11302100197F1F700C00000D6CF0E941401689442
S1130220B1110C94A30108950E94880188F09F578E
S113023098F0B92F9927B751B0F0E1F0660F771F06
S1130240881F991F1AF0BA95C9F714C0B13091F0FC
S11302500E94A201B1E008950C94A201672F782FA7
S11302608827B85F39F0B93FCCF3869577956795C1
S1130270B395D9F73EF490958095709561957F4F2D
S11302808F4F9F4F0895E89409C097FB3EF49095D3
S11302908095709561957F4F8F4F9F4F9923A9F05B
S11302A0F92F96E9BB279395F695879577956795EA
S11302B0B795F111F8CFFAF4BB0F11F460FF1BC02E
S11302C06F5F7F4F8F4F9F4F16C0882311F096E9C1
S11302D011C0772321F09EE8872F762F05C066236F
S11302E071F096E8862F70E060E02AF09A95660F28
S11302F0771F881FDAF7880F9695879597F90895E1
S113030057FD9058440F551F59F05F3F71F04795C2
S1130310880F97FB991F61F09F3F79F087950895A7
S1130320121613061406551FF2CF4695F1DF08C0C6
S1130330161617061806991FF1CF869571056105E3
S113034008940895E894BB2766277727CB0197F98B
S113035008950E94BC010C942D020E941F0238F0E3
S11303600E94260220F0952311F00C9416020C949E
S11303701C0211240C94A3010E94800170F3959F28
S1130380C1F3950F50E0551F629FF001729FBB2788
S1130390F00DB11D639FAA27F00DB11DAA1F649F24
S11303A06627B00DA11D661F829F2227B00DA11DD7
S11303B0621F739FB00DA11D621F839FA00D611D5D
S11303C0221F749F3327A00D611D231F849F600D7E
S11303D0211D822F762F6A2F11249F5750409AF0A7
S11303E0F1F088234AF0EE0FFF1FBB1F661F771F33
S11303F0881F91505040A9F79E3F510580F00C94FE
S113040016020C94A3015F3FE4F3983ED4F386955F
S113041077956795B795F795E7959F5FC1F7FE2B9D
S1130420880F911D9695879597F9089597F99F6779
S113043080E870E060E008959FEF80EC0895002468
S11304400A941616170618060906089500240A9435
S113045012161306140605060895092E0394000CBB
S113046011F4882352F0BB0F40F4BF2B11F460FF4A
S113047004C06F5F7F4F8F4F9F4F0895052E97FBEA
S11304801EF400940E94550257FD07D00E945D029D
S113049007FC03D04EF40C945502509540953095CA
S11304A021953F4F4F4F5F4F0895909580957095DC
S11304B061957F4F8F4F9F4F0895A1E21A2EAA1B7B
S11304C0BB1BFD010DC0AA1FBB1FEE1FFF1FA21700
S11304D0B307E407F50720F0A21BB30BE40BF50BFD
S11304E0661F771F881F991F1A9469F76095709586
S11304F0809590959B01AC01BD01CF010895F894BE
S1050500FFCF27
S9030000FC
